:020000041000EA
:1000000000B5324B212058609868022188439860DF
:10001000D860186158612E4B002199600221596106
:100020000121F02299502B49196001219960352056
:1000300000F044F80222904214D00621196600F024
:1000400034F8196E01211966002018661A6600F04E
:100050002CF8196E196E196E052000F02FF8012189
:100060000842F9D1002199601B49196000215960AB
:100070001A491B48016001219960EB211966A021F2
:10008000196600F012F800219960164914480160C1
:100090000121996001BC002800D000471248134993
:1000A000086003C880F30888084703B5996A0420EC
:1000B0000142FBD001200142F8D103BD02B5186610
:1000C0001866FFF7F2FF186E186E02BD00000240BE
:1000D000000000180000070000035F00212200005C
:1000E000F4000018222000A00001001008ED00E03C
:1000F00000000000000000000000000074B24E7A12
:1001000000200420F7010010C3010010C5010010F9
:10011000C1010010C1010010C1010010C101001097
:10012000C1010010C1010010C1010010C701001081
:10013000C1010010C1010010C9010010CB01001065
:10014000CD010010CD010010CD010010CD01001037
:10015000CD010010CD010010CD010010CD01001027
:10016000CD010010CD010010CD010010CD01001017
:10017000CD010010CD010010CD010010CD01001007
:10018000CD010010CD010010CD010010CD010010F7
:10019000CD010010CD010010CD010010CD010010E7
:1001A000CD010010CD010010CD010010CD010010D7
:1001B000CD010010CD010010CD010010CD010010C7
:1001C00000BE00BE00BE00BE00BE00BE00F04BF888
:1001D000103800BEF2EB887144300610A0300610D3
:1001E0003402001090A31AE700202149086006C8D5
:1001F00081F3088810471F48006800282FD10DA4FC
:100200000ECC002902D000F012F8F9E71A491B4A77
:10021000002000E001C19142FCD1194988471949E9
:1002200088471949884700BEFDE701C901C29A42C3
:10023000FBD37047A0300610C00000208873002058
:1002400068A30610000004200000042068A3061024
:1002500000100420001004200000000070470B482C
:1002600043F049F90047EFF30580C0B27047000042
:1002700008ED00E0000000D08873002040F6022066
:1002800005510410190C04100152041057560000B7
:1002900006005250ABB36053232F06100600525095
:1002A000861C030254D10510060052505422A29D10
:1002B0002E2F061005005250DE65F46868A3061064
:1002C000F8B5C0460448054B10B5834203D0044B33
:1002D000002B00D0984710BD887300208873002041
:1002E0000000000006480749091A8B10C90FC918F9
:1002F00010B5491003D0044B002B00D0984710BD17
:1003000088730020887300200000000010B5074C9F
:100310002378002B09D1FFF7D5FF054B002B02D026
:10032000044800E000BF0123237010BD8874002042
:100330000000000098950410054B10B5002B03D069
:100340000449054800E000BFFFF7CCFF10BDC046E0
:10035000000000008C74002098950410030020B564
:10036000500C1500520892B2002904D0E90702D4BB
:100370000B4817F087F9904206D198420FD002003F
:100380000849094816F012FA984204D9C21A0749D6
:10039000054816F00BFA9A4201D20549F1E720BD53
:1003A00098950410C095041088C50410F9950410A0
:1003B0002B960410F0B50024160087B00C9D039016
:1003C0000491059302940194059B9C4206D1019BE4
:1003D000039A93423ED2244817F054F9039B9C425F
:1003E00013D26B889B05F6D4019B049A01330193C9
:1003F000A300D058FF226B88A7001340012B22D105
:100400000CF05CFD0D9BD85515E0022329880022D5
:10041000C9003000194309F017F900280ED16B8884
:10042000DB0504D52A881149114816F0BFF90D9A49
:100430006968A300D15001340835C5E7029B4068C4
:1004400001330293D6E7022B01D10CF0B7FB0D9BD1
:10045000D851F0E73368029ADB08934201D9054886
:10046000BAE707B0F0BDC046719604105A96041062
:1004700088C504109296041070B515001E00040083
:1004800086B08200AA1803A809F0B6F80B9B2900D1
:1004900001930A9B2000009303AA3300FFF78AFF11
:1004A00006B070BD10B5014817F00EF9B0960410F3
:1004B00010B504000161880009F058F8606110BDB2
:1004C00010B50400002902D0C06809F083F8606903
:1004D00009F080F810BD70B504000D0001290ADC98
:1004E00001210369494240699A0046F071FF0023E7
:1004F0002560636070BD406809F038F86368E060AB
:10050000A360F4E7030010B51C6842680020022CC9
:1005100001D1D86880188918596010BD0368012B73
:1005200003DC426843698900CA50704742684B1E29
:100530009B18494219404160704770B50C00150086
:10054000FFF7E0FF0419002803D170BD05702D0AE4
:100550000130A042FAD1F8E710B50C000221FFF7F4
:10056000D1FF002802D00470240A447010BD00009E
:10057000F8B5050003290DD80024104B5F5CB521A8
:10058000090228003943FFF7E7FF261E0DD1AF61AE
:10059000EC61F8BD0123023999430C00FE27EEE718
:1005A00028000749FFF7D8FF7F3E7F2EF8D805497E
:1005B00028003143FFF7D0FFE9E7C0462A9704102F
:1005C000FFB0000080B0000070B5C5690400002DC8
:1005D00007D07F2D0DD8B021090220002943FFF755
:1005E000BBFFBD21A369090220001943FFF7B4FF37
:1005F00070BD20000249FFF7AFFF7F3DE9E7C0462D
:100600007FB0000070B50D0004211400FFF77AFFE1
:10061000002805D0057084702D0A240A4570C47026
:1006200070BD10B5DB0011431943FFF795FF10BDF6
:1006300010B5072A09D8D20007290CD80A438C2103
:10064000C9011143FFF788FF10BD13004022083B8A
:10065000DB001A43F0E7083911438022EEE7F7B5D3
:10066000FF270B020E00111239400193194380231A
:100670009B01194305001400FFF76EFFF1000E43C4
:100680008021890028003143FFF766FFC021019BCC
:100690003C401C43890128002143FFF75DFFF7BD63
:1006A0004369890070B5CC58E02105004368090210
:1006B000E41A043C23055B0D1943FFF74DFF2B683B
:1006C0000120022B08D1E40AE302002C04D080228E
:1006D00012019B185842584170BDF8B50500002022
:1006E0000F0083421AD16B699200D4586B68FF26C1
:1006F000E41AD023043C611031403F021B0239430D
:1007000028001943FFF728FF2B680120022B05D191
:10071000B44303D00134FF3460426041F8BD436903
:10072000F822890070B5CC58F02105004368120208
:10073000E41A043C63109BB21A4363025B0D090286
:100740001943FFF75FFF2B680120022B08D1A40D8E
:10075000A305002C04D08022D2039B185842584194
:1007600070BD0000F8B5476804000E001500BB0717
:1007700003D5BF210902FFF7EFFE90213602C90120
:1007800031432000FFF7E8FE20000649FFF7E4FEB2
:10079000A9B22000FFF7E0FE2000290CFFF7DCFEE5
:1007A0003800F8BD01E00000F7B506000C001700A6
:1007B00007290AD8FF239A4307D10C028021274337
:1007C00089013943FFF7C8FEF7BDFB17FD185D40EF
:1007D000280044F03BFD0023019000939F4203D08A
:1007E000280044F039FD0090009A019B9446634430
:1007F000172B1AD91541E9B2250229438025AD01ED
:1008000030002943FFF7A8FE009BE1009801214337
:1008100001433000FFF7A0FE002FD5DA23002200AD
:1008200030000A49FFF7FDFECEE72B0C05D12A0068
:1008300021003000FFF713FFEEE7002F00DA6D42D2
:100840002A0021003000FFF78DFFBDE74042000085
:100850000B001100026810B5012A06DDFF221C0002
:10086000944302D0054816F02FFF9022DBB2090214
:10087000194312021143FFF76FFE10BDF2960410E8
:10088000036810B5012B06DDFF2314009C4302D042
:10089000054816F019FFD2B209021143982212023C
:1008A0001143FFF759FE10BDF2960410D2B20902AF
:1008B0001143A82210B512021143FFF74DFE10BDDF
:1008C00043699200D358426870B59B1A01221A43BB
:1008D0000C3A0C000500FFF7C2FEB22122002800EE
:1008E00023000902FFF79DFE802321011940793B77
:1008F0001C400C43024928002143FFF72DFE70BD28
:1009000078440000F0B507000D0014001E0085B00B
:1009100007290FD8072A0DD81F2B0BD8D021D400B8
:1009200025439E012E43C90131433800FFF714FED1
:1009300005B0F0BDEB0001932B430393072D3AD88C
:10094000072C38D81F3EFF2332009A434CD13F2E4C
:1009500021D9A54233D1072401216C40A140029145
:10096000B421029B090219433800FFF7F5FD21006D
:100970003800B200FFF773FEC021019BA40125439C
:100980001D43490129433800FFF7E6FDBC21029BC6
:10099000090219430CE0A54204D0220029003800C6
:1009A000FFF746FEC021B6002D02354389012943D9
:1009B0003800FFF7D1FD1149039B1943B5E7290220
:1009C0000E438021890138003143FFF7C5FD8021A6
:1009D000039B38001943FFF7BFFDA4012543C02145
:1009E000019B49011D43E2E7B200A542B3D02900B3
:1009F0003800FFF734FEA9010D43F0E7C06F000097
:100A00004369890010B5CC584368E11A0439CB0A10
:100A1000DB02621C0CD0CA1C0ADA0E4A934215D1C2
:100A2000E0230905490D1B021943FFF795FD10BD91
:100A3000002BF5D0074A9342F2D0BF210902FFF7FD
:100A40008BFD631CF3D0044816F03EFE002BF4D15E
:100A5000E6E7C04600F8FFFF1497041070B50400E5
:100A6000930015004269985863680A02C31A043B50
:100A7000411C11D0D91C0FDAFF211E000D488E43F6
:100A8000864209D15B101940D02311431B0220007C
:100A90001943FFF761FD70BD802149004A40D02114
:100AA000090220001143FFF757FD29002000FFF73E
:100AB000A7FFF0E700FFFFFF043A52100902D2B28D
:100AC0000A43D02110B509021143FFF745FD10BDBF
:100AD000E02310B5043909051B02490D1943FFF73E
:100AE0003BFD10BD70B514000B000722210005006E
:100AF000FFF708FF8F21E400C90128002143FFF719
:100B00002BFD70BDF0B58DB00792426808939446F6
:100B10000368040004939B680D000093828963447A
:100B200006925A1C426003221B7801211A4000924F
:100B3000002204200392029201925BB2002B23DB7D
:100B40002300002120001033A360069BE1819B005D
:100B50001A001430059346F03BFC009A069B9B1A42
:100B6000029A09939E1A0423019A371D1340009A92
:100B7000BF00E719AA4200D398E0002B22D12B0036
:100B8000A049A14815F012FE6368019F5E1C6660D3
:100B90001B789E110E40964037431E00064096403B
:100BA0000197009F3743DE100E4096400097029F4A
:100BB00037431E000E4096400297039F0132374391
:100BC0000397BAE7009B03369900089BB6005918B3
:100BD000009BA619E81A13F0F5F9009B043F70601A
:100BE000089A05999B0061189B180439934200D01C
:100BF00087E00823019A1A400A920A9B079A1A432F
:100C00000223002A00D1D9E0019A00261A400B9253
:100C1000019A1A4204D007980DF076FD060038605C
:100C20000027049BAD00DB680193089B5D19079BBF
:100C30009F4269D1039A099ED11C049A89005518D4
:100C400000220536B600A3190398904200D087E031
:100C5000059A0C391432A2185B189A4200D988E020
:100C60000027009B143E9D00019BA6195D19029B65
:100C7000BB4200D087E00022110013006668701CA0
:100C80000190012501983F2780180090B05C054035
:100C90009540294345103D40393F5743BD4040B240
:100CA0002B43002800DB98E00132EAE7002B05D057
:100CB0000336564BB600A619043F73600823019A09
:100CC0001340079A134314D1009B039A9A1AAA421D
:100CD00000D954E7039B009A5B199B1A049A9B0066
:100CE000D3182A00059910316118009804339042F6
:100CF00001D12B0074E79000DE6840420E500132B3
:100D0000F3E701CA486170E7009B029800221B18B4
:100D10009C462968944505D80B9B002B1BD1CA081B
:100D20003B490EE0019B90001858884211D1069B68
:100D3000013B9B1A9B00E3185A69002A04D0CA0899
:100D40003449314815F032FD6A685A610137083577
:100D50006DE70132DEE730006A680DF04CFDF5E723
:100D600090001F58002F02D14742EF591F50013207
:100D70006AE70433191F0968002900D06DE7D21A09
:100D800025499210DDE73269002A0FD10A9B2968B4
:100D9000002B0FD0039B049804339B001858043099
:100DA00008F052FC002805D0436833610137043E47
:100DB00004355CE72A681949D208C2E7029A002A7A
:100DC00002D0174816F05EFC019A1A4200D152E791
:100DD00002980DF099FC38604DE7009AD718CE19AB
:100DE000BE4202D166600DB0F0BD069B3D78013B6E
:100DF0005D1BAD00651968690CF07EFE0137686106
:100E0000EEE7C046C095041088C5041038DE041013
:100E10005D9704102E9704107E970410B09704106D
:100E2000E097041070B505000478E92023095B0001
:100E30008000184103231840EB18012811D06123CA
:100E40009C4363426341DCB26B1C02280CD1002A34
:100E500006D01A0016003678013213007F2EF9D81A
:100E60001B195B1B0B6070BD0328F9D1EB1CF7E766
:100E700010B5402834D02DD8022398433C2829D1DE
:100E8000532922D8412925D942390800112921D8CE
:100E900048F0FAFA5920202020205615202015204D
:100EA0002015152320150F2814D848F0EDFA4C13FF
:100EB00016130813490813130813131313160123E9
:100EC0000420002A00D0136010BD6239CBB20800A4
:100ED0000F2BE8D91D4816F009FA01230820F0E786
:100EE000532918D8412904D8012318009942E8D081
:100EF000F0E7423908001129ECD848F095FA24EBC4
:100F0000EBEBEBEB1F09EBEB09EBEB09091DEB0935
:100F100004231800D5E76239CBB208000F2BD9D8CB
:100F20000F28D7D848F080FA0FD608D6F4D60AF49E
:100F3000D6D6F4D6D6D6D6080823EAE70223E8E7C1
:100F400001230220BDE70123E3E7C0460798041010
:100F500010B5512812D8412803D8012823D00023E6
:100F60001DE042380F28FAD848F05EFA1DF9F9F969
:100F7000F9F92225F9F925F9F94447316238C3B264
:100F80000F2BECD80F28EAD848F04EFA08E92DE9E3
:100F900028E90F37E9E937E9E9E9E91A8B56012031
:100FA0005B0018430BE08B5CF9E75200535EF6E7F9
:100FB0005200535AF3E7920050580EF0B9FF10BD9B
:100FC000D2008A18106851680EF01CFFF7E7D200B3
:100FD0008A18106851680EF030FFF0E79200505800
:100FE0000DF074FFEBE7D2008A181068516844F0E6
:100FF00099FCF5E792005058E1E7920050580EF046
:1010000010FFDCE7F7B507000C000126002A02D12B
:10101000421E9B18023E00200021002C06D0002218
:1010200000259A56D40F00216042A941002211E008
:10103000040E00940C020194040225001C78013275
:10104000A4462C0065462C432000009D019C9B1962
:1010500025432900BA42EBD103B0F0BDF0B585B00D
:10106000019203AA04000D001F001E68FFF700FF95
:10107000402C09D1039B019A043CB61A5A1EB2189F
:101080005E42019B16409E195A213E3C62426241DB
:10109000A942894133183B60D2B233004942FFF77D
:1010A000B1FF06000F004F2D07D0532D07D148F098
:1010B00033FA0100300011F05DF905B0F0BD662D86
:1010C00003D0642D04D144F02DFC0DF0FFFEF4E7B5
:1010D0005A2D13D980220023D20592197B4130006A
:1010E0001100002B06D180231B06994202D20EF07C
:1010F00098FEE2E739000EF085FEDEE7002906D112
:101100008023DB05984202D20EF012FFD5E73900AA
:101110000EF093FED1E713B50400019310000029EF
:1011200004D1220001A946F059F913BD01AB1B19E6
:101130001419A042F9D0013B1A7802700130F8E787
:10114000F0B589B01F000E9B140005AA1D68019020
:101150000291FFF78DFE019B0600402B08D1059BF5
:10116000ED1B5A1EAA185D423C2315407D190193C0
:101170000E9AAB191360019B3E3B1F0003937B4209
:101180005F41029BFFB2642B12D0662B0BD04F2B1A
:1011900029D13000042E00D9042023002A00390070
:1011A000FFF7B9FF2BE020000BF082FD0400F0E711
:1011B00020000BF07DFD45F015FB08AA0690079175
:1011C000BB00D318083B2A001B6839000420FFF736
:1011D000A2FF039B04355A1E934108AA9B00D31813
:1011E000083B1C68D5E7A3070BD10F4B22689A4236
:1011F00007D12B003200390020000EF0B4FD09B0F9
:10120000F0BD20000BF0DAFC0400042EC1D9C11798
:1012100032002800C9B246F0DBF8019B3E2BB8D162
:10122000331FED18B5E7C046BCCB041070B50C00F9
:10123000712807D8612806D801281DD04238C1B2CC
:101240000F290DD970BD62380F28FBD848F0ECF893
:1012500014FA25FA1FFA162DFAFA2DFAFAFAFA19E3
:101260000F28EFD848F0E0F808EEEEEEEEEE0A2197
:10127000EEEE21EEEEEE210DA354E3E75200135300
:10128000E0E7D200A4182360DB176360DAE71800F8
:10129000950045F037FA6051D4E7D20018008C1859
:1012A00044F0F8FA20606160CCE792001351C9E77E
:1012B000F7B506000F0014001D0064280DD0662845
:1012C00004D04F2813D19400E35105E09400180096
:1012D0000F190BF0EDFC3860F7BDD40018000F19A2
:1012E0000BF0E6FC45F07EFA38607960F4E7032302
:1012F0002A001A4001921D4211D10E4B2A689A42CF
:101300000DD10100019A4020FFF7B2FD23004343B5
:10131000020001992800FB180EF025FDDCE72800EB
:101320000BF04CFC2200030039003000FFF77EFF79
:10133000D2E7C046BCCB041073B50C0001A92068ED
:1013400011F0B4FB0500606811F082FB2900002356
:10135000019A08F0D9F80500A06811F079FB51282E
:1013600007D00E4B984214D0502814D00C4815F0DA
:10137000BDFF0126082008F0F9F80A4B04000360BD
:101380000023310028001A0015F00AFB60602000DD
:1013900076BD0026EEE70226ECE7C046DE0200003E
:1013A000149804104C980410F0B5324D91B02B698C
:1013B00003920193EB68029301283ED94C68062CF6
:1013C00009D0A30704D12C4B226826009A4204D0EE
:1013D000002016F057F9029E019C022809D08B6864
:1013E000062B06D09A07F3D1234A18681E009042B4
:1013F000EED103220F68174229D1204B3968994258
:1014000025D12C61EE607B68134204D11C4A196817
:10141000914200D15C6004A80BF00CFB00280FD1B6
:10142000786815F0B5FA04000BF0FCFA019B2B610B
:10143000029BEB60200011B0F0BD029E019CD8E73A
:10144000019B05982B61029BEB600BF007FB0122CF
:10145000380004A90BF034FE0023059A0499EC200F
:1014600008F052F822003300039915F099FA0400AD
:10147000E0E7C0461C8F0220D8BE04104C98041030
:1014800090C7041010B50222FFF78EFF10BD10B5F3
:101490000122FFF789FF10BDF0B587B0002806D103
:1014A00059495A4809F00AFD062007B0F0BD0E68F8
:1014B000574B9E4264D1002108000FF048F90024E8
:1014C00005000390534B5A680192944219D3039F2D
:1014D000514E3578002D22D1504A03A901200EF03B
:1014E00093FF039805AA04A90FF048F9049B03335E
:1014F0009B080193019B454EAB421FD130004849E8
:10150000D0E79B680193019AE3009958002904D021
:10151000042902D028000EF0B9FE0134D2E73000D1
:1015200047F0FAFFC11E0400300010F023FF013421
:10153000010038000EF0AAFE3619CAE72F00059AFE
:10154000BB00985811F09AFA0100300009F0B6FC7F
:10155000019BFF18049B9F420CD212231C1A002CE3
:1015600006DD013CEBD330002E4909F0A7FCF8E77B
:101570001234F4E730002C4909F0A0FC0135B9E73A
:1015800030000BF08DFA0400204D2849280009F0A6
:1015900095FC002130000BF0B1FA2800E2882449C4
:1015A0000AF01EF8234B9C4224D1746804340026B0
:1015B00063689E4200D377E7A268F300D3181F68E0
:1015C000002F15D05B681C492800019309F076FCB8
:1015D000002138000BF092FA1849280009F06EFC3F
:1015E000002101980BF08AFA28000F4909F066FCE7
:1015F0000136DDE7124B9C4200D13400A36B1C1D69
:10160000002BD4D150E7C0464AC7051014B40410CB
:101610002A13000008CE0410801E0610C0BE04105D
:10162000889804102CE80410A08A0510AC980410C7
:10163000B498041014CF041008E00510C4980410E6
:1016400048E1041010B5040007F0DAFA002802D1CE
:1016500020001CF013FC10BD10B5040016F07BFF39
:10166000FFF7F0FF02280DD063686D22991E20005D
:1016700016F0DCFF200016F06EFFFFF7E3FF0023FB
:10168000022800D10223180010BD000030B504006C
:101690008FB010000D0014F083FC0222C000B721AF
:1016A0000243200015F0D6FA6368104C02A82269A4
:1016B00023610092E268E36001920BF0BBF9011E26
:1016C0000DD10200280003F031FF15F061F90BF095
:1016D000A9F9009B2361019BE3600FB030BD009B23
:1016E00003982361019BE3600BF0B8F91C8F022083
:1016F00073B50E000500080016F02DFF716801AAF1
:10170000040007F0A3FA022805D12200019928005D
:10171000FFF7BCFF73BD73682000E318033B1B7821
:101720006D2B04D114F032FB22000100EFE707F02B
:10173000F8FE022204000368B721DB0028001A43E8
:1017400015F088FA6A6801211300200015F028F9C5
:10175000E0E7000010B5040016F0FDFEFFF772FF91
:10176000012806D02000034916F054FF2000FFF79F
:1017700073FF10BDD2DD0510F0B5AFB00C6800AF3F
:1017800003280AD9CB687B60042841D00B695D101F
:10179000002B05DA002015F0A9FD062300257B604B
:1017A00018232000F91811F081F97861002D62D01A
:1017B000C34EBA2130690CF08FFF013D0400C3080D
:1017C000152B04D1AA2130690CF086FF0400306982
:1017D0000022BC49043007F037FF18222023BA1832
:1017E000D1180600200011F061F9BB6B0100C4188C
:1017F000002E05D1A14203D2013C23782E2BF9D132
:10180000013D0BD2A1420CD1AF49B04814F0C4FF46
:101810000025C5E7013C23782E2BF1D0A142F9D356
:10182000EEE7BE69641A3C61002E02D0731C1B19DE
:101830003B616A463B690733DB08DB00D31A9D46F0
:101840006D462200280045F0C9FD002E07D02E234A
:10185000601C320079692B55281845F0BFFD3969A5
:10186000280014F0FFFA0224C3001C4314F0ABFB61
:101870003B697861BB61BB69002B8BD0200011F004
:10188000E7F80FF07BF9051E14D02E21786947F098
:101890002BFD00280AD07B68062B07D17B69C11A73
:1018A000180014F0DFFA0FF069F905002800BD46B2
:1018B0002FB0F0BD1820202301263A18D21838186E
:1018C000103B8021C01816F0E9FD3D60FD60BB694A
:1018D000B34204D27B68062BE8D03D68E6E7B3420A
:1018E00004D07B699B5D2E2B00D0A7E03100786986
:1018F00014F0B8FAFC6AB860002C00D0A0E01822FE
:101900000823BA18D2181433F91871480EF036FFAC
:10191000FB69002B6DD13200102479691823F81867
:10192000001916F079FD1823FB181819FFF712FF9C
:1019300038613B69002B5FD0B8680FF01FF9041EB7
:1019400066D1B8680FF0B8F8BB690400B34200D0A4
:1019500088E07B680E2B00D084E03B69012B00D12E
:1019600083E0AA22BA2140680CF045FF2200AA2198
:1019700058480CF040FFBB68AA21DA0002236068D7
:101980001A430CF038FF18221023BA182000D1187F
:10199000FFF7AEFE3CE018210C22002379188918CD
:1019A0003A6AFB62A300985811F080F87A6A010045
:1019B000002A0CD0182010233818C01816F02CFD5F
:1019C00018221023BA182F21D01816F0DAFD18208B
:1019D00010233818C0183200796916F01DFD18223E
:1019E0001023BA18D018FFF7B5FE38610028A3D12C
:1019F0000134FB699C42CED3BB69B3422DD17869D7
:101A00000FF08AF8041E28D00100B8680FF0A0F883
:101A10003B68002B0CD07A69FB689446F11A63444A
:101A2000180014F01FFA22000100386815F012F9AE
:101A3000002D00D12500731CFB603C60013646E799
:101A400018231024FA182F21101916F09AFDFB689C
:101A5000F968F21A7B69591860E7BA681E491B4891
:101A600014F0A4FE3B69012B8DD1F96A386B10F09C
:101A700081FCCA210200200015F0ECF8FB6A182254
:101A80003B611023B818C0182F2116F07AFD1822D8
:101A90001023B818C018114916F0BCFD18221023E5
:101AA000BA18D018FFF7D8FD022806D11822102343
:101AB000BA182000D118FFF71BFE3B69FB62A7E7AD
:101AC0001C8F022052060000D8980410C8C10410D0
:101AD000C48F0220648F0220F698041048E105109C
:101AE00007B5CA216A4614F0E3FD0098431E9841E9
:101AF000C0B20EBD436A5B8B012B02D0036959183B
:101B00000161704710B50400C36A806ADB6F9847B3
:101B1000A38B626A01339BB2A383D18C994200D21A
:101B2000D38410BD10B50400838B013B8383C36A4B
:101B3000806A0833DB6F984701212000FFF7DAFF46
:101B400010BDF7B507000C001E0000290DD00323BF
:101B50000D001D40194211D14B68D9B291420DD1EF
:101B60001B0A0193019B9D4200DBF7BD2300AA00E5
:101B7000083338009958B0470135F3E721003800A1
:101B8000B047F2E7F0B589B004000D000592069366
:101B9000002B03D008230A8B13430B833022059BB1
:101BA0002B84636A198B0A431A831B78002B44D158
:101BB000E36A2900B4331E68059A069BA06AB04701
:101BC00009B0F0BDD26AFB00D118D35C0791043B89
:101BD000012B1FD8002318E0049BEA6ADB00D01811
:101BE000D35C052B0FD1079B5968436899420AD1F2
:101BF000079BA06A5A88E36A5B691E000023B0470E
:101C0000039B01330393049B01330493049A6B8D6C
:101C10009342E1DC0137626A538DBB42D2DC039B05
:101C2000002BC5D0069AE36A0092B8331F682900DA
:101C3000059B039AA06AB847C2E700270397EAE723
:101C4000F8B50F0011001A000023040085794669D9
:101C5000837143610F4BFFF774FFA368002B18D10A
:101C6000E18A00290BD0A28A002A08D1E36AA06A7F
:101C7000A0331B689847E36AA06A5B6C9847A38A05
:101C800039002000E28AFFF77DFF6B1E9D416661EF
:101C9000A571F8BD4D34001010B59D22024B896826
:101CA000FFF74FFF10BDC0462541001010B56B2255
:101CB000024B8968FFF745FF10BDC046B5240010F0
:101CC00010B50400C36A002188331B68806A9847F6
:101CD000E36AA06A10215B6B9847E36AA06ACC3381
:101CE0001B680121984703212000FFF703FF10BD67
:101CF00070B50400C36A00229B6C806A9847E36A4F
:101D0000A06AC0331D6800231A001900A8472000EC
:101D1000FFF7D6FF70BD10B5C36A896800225B6DFE
:101D2000806A0909984710BD10B5C36A89681B6CA1
:101D3000806A984710BD10B50400080011002268A1
:101D400015F0DAFD636A436000238360236A002B89
:101D500001D1206210BD1A009B68002BFBD190605E
:101D6000F8E770B5437904000D00012B06D1436AF2
:101D70000A005B8B0221FFF7DEFF2861AA68296950
:101D80004C232000FFF75CFF70BD70B51300427953
:101D900005000C00012A04D10A000721FFF7CBFF40
:101DA000A061A669280031004623E268FFF748FFDA
:101DB000F08A70BDF0B589B005000C0000AF0029B5
:101DC00002D10121116018E0032319401C421CD1EB
:101DD00063683961DBB2682B07D1E3681B091360C4
:101DE000A4680123002CECD03B610F232340022B7D
:101DF0000DD13B692109002BE4D0EB6A00221B6B5B
:101E0000A86A9847BD4609B0F0BD0023ECE73B69DE
:101E1000002B02D1A3681B091360002663681B0A0C
:101E2000BB60013BFB60BB689E421DDB6A46FB68F2
:101E30000733DB08DB00D31A9D461E003B600023FE
:101E40007B617B69BA6893421ADBF968386814F0E1
:101E500009F8EB6A01001B6B0022A86A98473B69EE
:101E6000002BCFD0012632E02300B200083398586F
:101E70000136000914F0A2F8FB681B18FB60D2E7DA
:101E80007B69002B02D02E23337001367B699A00C8
:101E90002300083398581C230009F91814F098F807
:101EA000FB6901001A0030007B6045F097FA7B68FF
:101EB000F6187B690133C3E72300B2000833995851
:101EC000EB6A00225B6DA86A090998470136BB6876
:101ED0009E42F1DB96E7002906D0032302680B40FF
:101EE000134301D10B68036070470000836870B52D
:101EF0000D0004001100002B08D105480CF012FE63
:101F0000A060200029000C30FFF7E5FF70BDC0463F
:101F100010C50410F0B50D004162002142712B780C
:101F200091B0049204008D4A0161072B2ED1049BCD
:101F3000012B06D00200436B04991B68006B08322A
:101F400098476379EF68032B10D1380046210FAA18
:101F50000C3047F081FA636B01009B680F9A206B8D
:101F60009847A368A883002B00D0BBE039690029FB
:101F700045D00F250D40022D3DD10B09752B40D0CA
:101F800009D83E2B3FD05E2B0AD0754A2000FFF7C0
:101F9000ADFF11B0F0BDC722032592009342F4D1EA
:101FA0007B6919210EAA0DA80D9347F055FA00235D
:101FB0000A900893089B0A9A934226D16379012BD1
:101FC00015D9636B29005B68206B98476379042BF4
:101FD0000DD10023606A03950293818B226B0191DE
:101FE000009393680521D268006903F086FAA3681C
:101FF000002B77D1CDE720005A4AFFF777FF022563
:10200000CEE70025CCE70125CAE7089B9B00059396
:10201000059A0E9B9958FF224B681340082B02D15A
:10202000089B0133C5E7052B01D04F4AAEE7CB68CB
:10203000002BFAD1FF208B685A6802402C2AF4D179
:102040009E681D3A3240022AEFD1DB680793002BCD
:10205000EBD09B07E9D1079B5B6806930340302BCD
:10206000E3D10798A4210FAA083047F0F5F93F4BB8
:10207000360906909E421CD1012805D10F210F9AE6
:1020800013680B40022B04D0394A0E9B059959580E
:102090007CE721694B1C2361049B012B1ED0126835
:1020A000636B206BDB6812099847002816D1314A10
:1020B000EBE7C5235B009E4217D1069B012B04D1A1
:1020C0000F9B1968069B194201D12B4ADDE7049B3F
:1020D000012B03D0206B4910FEF728FAA368002BD0
:1020E0009ED0079F3B68E36053E7C623FF339E42C1
:1020F00027D1069B012B07D90F9B1E6801233200B5
:102100001A4009921E4201D11C4ABEE7049A012AD4
:10211000E4D076100B93099B0F9A9B009A580B9B67
:102120001A4201D1164AB0E752103100206BFEF777
:1021300004FA099B01330993099A069B9342EAD159
:10214000CCE7049B012BC9D0636B31001B69069A55
:102150009C46206B66460F9BB047BFE7189904105A
:102160003C99041049990410719904103702000039
:1021700094990410B0990410C0990410DC990410CB
:10218000019A041010B5024AFFF7B0FE10BDC04618
:10219000239A04104B6870B5DBB20400092B10D1F0
:1021A000058B094B9D4203D12000084AFFF79EFE94
:1021B000E38BA28B2900D21AE36AA06A9B6F98472F
:1021C00070BD458BEDE7C046FFFF0000409A04104C
:1021D00070B500260500B14210D00F230B40022B32
:1021E0000ED10C0920000AF0E7FB061E06DA2200D9
:1021F000054906480CF020FD0026A860300070BD9F
:10220000034AFFF773FEF9E7609A04103CC6041016
:1022100050990410F7B50400406A0192028B9C4665
:10222000170002230D001F401A4205D0324A290030
:102230002000FFF75BFEF7BD0F263140022917D1C2
:10224000A2792909002A03D0C38B0133C38303E099
:102250001700838B0133838301260029EBD00022F2
:1022600015F089FB03780090002B2ED0234ADEE77F
:102270006968019EC9B22F00B14208D1AB68190943
:10228000A379002BE0D1838B01338383E4E761459D
:1022900015D1A779002FC9D10123A371A9680029FD
:1022A000C9D00F2603331A430E400283022E02D1F7
:1022B000D9400326D1E78B680F001909F9E7A9680F
:1022C0001343052609090383C7E70323009A137004
:1022D0005670636A5B8B032BADD1019B482BAAD14F
:1022E000002FA8D02000F968FFF772FF009A0301C1
:1022F0005078184350709EE7729A0410819A041027
:1023000010B54F234E22FFF785FF10BD10B54923AE
:102310004822FFF77FFF10BD10B5040062790B0063
:10232000406A012A02D115F026FB10BDE16A0200C5
:102330001431A06A03F0A6F8F7E710B50B00417955
:10234000426A012904D11900100003F08DF810BD74
:10235000C16A806A1C3103F095F8F8E710B5436A4A
:1023600004005A8BFFF711FD01002000FFF7E5FF85
:1023700010BD00000F23F0B58E6804000D0085B07D
:1023800033400E2B07D0002E30D0B3072ED1736808
:10239000DBB2652B1CD102960026652103AA02A898
:1023A00047F05AF80021039B80003F4AC01898422A
:1023B00014D13E4BEA689A4236D1636A1F78002FE7
:1023C00016D0290020003A4AFFF790FD05B0F0BD75
:1023D000622B0BD1B3680293F668DEE71F68974261
:1023E00002D101310433E2E70331FBE70021E0E7EA
:1023F000E36AA06A9B6B9847E36AA06A0521DB6BDE
:102400009847E36A3A00A0331B68A06A0121984705
:102410003100200003AAFFF7CDFCE36A0222390055
:102420001B6BA06A9847D1E7E36AA06A9B6B984749
:1024300028006A210C3002AA47F00EF80027050098
:10244000E36AA06AAF4211D1A033002229001B68C1
:1024500098473100200003AAFFF7ACFC0026E26A8F
:10246000A06AAE420BD1136E9847AFE70299BA004B
:102470005258DB6B9168013709099847E0E70299E8
:10248000B3005F58BB681B0901930199136B0122CC
:102490009847F968002905D101992000FFF74DFF01
:1024A0000136DCE70909F8E7DE0500002E0400002C
:1024B000969A041037B504000D00C36A00219B6B87
:1024C000806A9847E36AA06A5B6B102198472900ED
:1024D000200001AAFFF76EFC20000199FFF72DFFF5
:1024E00037BD10B50B004179426A012904D11900AA
:1024F000100002F0B9FF10BDC16A806A243102F0F9
:10250000C1FFF8E737B504000D1E16D0CB0705D57F
:10251000C36A49109B6BA06A98470EE08B072DD0C9
:1025200008090F210D40062D08D00A2D0AD0022DD2
:102530001CD101002000FFF7EFFE37BDE36A010068
:10254000DB6BE8E76379042B03D0E36A06211B6C9D
:10255000E1E701A913F03CFDE36A0199A46A1D6C4F
:102560000FF0ACFF01002000A847E6E70628E4D002
:10257000E36AC1B25B6BA06A9847DEE7C36A096889
:102580001B69806A98476B68034ADBB29B0029008D
:1025900020009B58C0E7C046409D0410F7B50327B4
:1025A00004000D00160039420CD00F230B40022B03
:1025B00013D10909D30702D4FFF7BFFEF7BDFFF718
:1025C000ABFEFBE74968FF200B0003402D2B7CD0BE
:1025D00009D8062B0CD02C2B13D0290020004E4AF2
:1025E000FFF784FCEAE72E2B00D183E09D2BF4D18A
:1025F000002EF2D12A00090A0832200000F08EF8DD
:10260000DCE7022A03D02000A968FFF77BFFEB6814
:102610000093002BE1D00323009A00991A4019423D
:10262000DBD14B680F00D9B28E2909D11B0A1700E4
:102630000193022E1AD1019B009A01339B009F58EF
:102640007B68DBB2312B26D1022E14D1E36AA06A5B
:102650009B6E9847E36A01211B6D19E0009BBA004D
:10266000083320009958FFF74DFF0137019B013BCC
:102670009F42F3DBDFE72000B968FFF743FFE36A1F
:10268000012EE8D1DB6DA06A98470021E36A1B6D3B
:10269000A06A984792E7322B9FD1E36AA06A012E85
:1026A00009D19B6D98470022E36AB9685B6D0909FF
:1026B000A06A984782E7022E01D15B6E9847B968FD
:1026C000E36A01225B6D0909F2E7AA68002A84D057
:1026D000002E82D15368190A022909D1D368002B30
:1026E00006D0980704D15B68DBB2AC2B00D174E74D
:1026F000083282E7002A00D06FE7A9680A1E00D1DD
:102700007BE7394203D14B6818409228E2D02A0077
:102710000121083271E7C046B39A0410F0B50127D1
:1027200005000E000C0085B0039201927F42331B1E
:102730000293002C15D17B1C05D1EB6A3100AC3320
:102740001B68A86A9847B4422AD0039AA300D158BC
:102750000022A74200D189682800FFF71FFF01343B
:10276000F1E7019B1968002911D0032319420ED10A
:10277000FF224B681340222B09D17B1C0CD1EB6A42
:102780000299B0331B68A86A621E9847029F019B9A
:10279000013C04330193CAE72800024AFFF7A6FB75
:1027A00005B0F0BDCE9A0410F0B504000D0017007E
:1027B000032685B00193280046F0C6FD002805D009
:1027C000002F1DD1E36A0199DB6E48E0280046F036
:1027D0003BFD002802D0002F12D0F3E7002D4DD092
:1027E00035424BD16B681A0A0292FF2213401E2B0E
:1027F0001CD1002F1ED0029B9E007619AE420DD137
:1028000005B0F0BD29000122B00008310958039B32
:1028100020007A40FFF7C8FF013610E0A9683A00AF
:102820002000019BFFF7C0FF0435E7E71F2B19D1FC
:10283000002FE0D000262369039301332361029B1C
:10284000013BB342DEDC029E019B0136B6007159AA
:102850003A002000FFF7A8FFE36A0399DB6AA06A49
:102860009847CDE7202B03D11F3BAD685F40A2E71F
:102870002D2B03D1AB68002BADD1A1E7290020009F
:10288000FFF740FEE36A39001B6F019AA06A984780
:10289000B6E7F7B504000D0006690193B31C0361A8
:1028A000C36A3100DB6A806A00929847E36A771C4A
:1028B0008C3339001B68A06A9847A9680022200061
:1028C000FFF76CFE2D69002D2DD120000099FFF738
:1028D00019FE636AE06A197806291CD1CC300368B6
:1028E0002900A06A984720000121FFF703F9E36A55
:1028F000A06A1B6E9847E36A3100A06ADB6E9847B6
:10290000E36A3900A06ADB6A9847E36AA06A9033F9
:102910001B689847F7BD019BA8309A0005680532EF
:10292000A06AA847E7E7FF226B681340AD2B07D1E9
:10293000A968330000222000FFF736FFED68C2E7E8
:102940002000E968FFF7DEFDE36AA06A8833012111
:102950001B689847019B29002000009A0133FFF76C
:1029600098FFC8E7F7B50D0000260400C36A42715E
:1029700011001B682A0045620661806A984706219B
:102980002000FFF7B7F86779012F00D16E62EE687B
:10299000002E0FD0B3070DD17368DBB23F2B09D1E6
:1029A0002000B168FFF7AEFDE36AA06AC4331B687C
:1029B00098472DE02B78002B09D131002000FFF73C
:1029C000A1FDE36A10215B6BA06A9847ECE7072B37
:1029D00023D1012F12D10023A37146225E4B200088
:1029E000F168FFF7AEF86B8B032B07D1200031693C
:1029F000FFF7EEFB8301288B1843288320007169C1
:102A0000FFF780FDE36AA06A9B6898470028D8D04A
:102A1000E36AA06A5B689847F7BD022B1BD1E36AA3
:102A200031681B69A06A98476379012B07D100239D
:102A3000A3714C222000494BB168FFF782F82000B7
:102A4000F168FFF75FFD2B8BDB07ADD5E36AA06A6A
:102A50001B6E9847B5E7033B032B4FD8F3680193F0
:102A6000012F05D103223900606A14F084FFAF837F
:102A7000E36A31681B69A06A98472B78032B24D13D
:102A80000122E36AA0331B680021A06A98472B78D3
:102A9000062B28D1E36AA06A5B6C984701212000CD
:102AA000FFF73AFCE36AA06A5B6C9847E36AA06AA6
:102AB0005B6C984700232000B2680199FFF7E9FE9C
:102AC0002B78062B00D06FE77BE7042B04D1E36A59
:102AD0000222A0331B68D7E7052BD8D1E36A032273
:102AE000A0331B68D0E720000121FFF715FCE36A43
:102AF000012188331B68A06A9847DBE7012F04D1C6
:102B000003220A21280014F036FF17212000FFF7C6
:102B100003FC16212000FFF710FCB368A06A190916
:102B2000E36ADB6B98471A212000FFF706FC2000C0
:102B30003169FFF7E7FC0A21280014F00CFF027846
:102B4000E36A032A00D13DE742885D690A21002338
:102B5000A06AA84728E7C0460D23001001230010F3
:102B6000436A70B51B780400072B05D0022B03D0F5
:102B7000144AFFF7BBF970BD8D68002D0FD1E36AD1
:102B800010215B6BA06A9847E36AA06ACC330021EE
:102B90001B68984701212000FEF7ACFFEBE7AB076D
:102BA0000BD16B68DBB2AF2B07D12000A968FFF710
:102BB000A9FC2000FFF784F8DDE729002000FFF7DB
:102BC000A1FCE1E7E89A04100F2370B50B40040064
:102BD0000D001600022B02D00B4AFFF787F93100D7
:102BE0002000FFF78FFCE36AA06A9B6D9847666A36
:102BF0003378033B032B01D87368636229092000F3
:102C0000FFF79BFB666270BDB39A041010B5CA68EB
:102C10008968FFF7D9FF10BD70B54379040015002E
:102C2000CE68012B06D1436A0A005B8B2900FFF7AF
:102C300082F870610023200071691A00FEF7A2FF7C
:102C40002000F168FFF75EFC062D05D1E36A002144
:102C500088331B68A06A9847E36A0121BC331D686A
:102C60000023A06A1A00A84770BD0000F0B58BB021
:102C7000079106920400A42109AA07A81F0046F0A4
:102C8000EBFB00231E000590029304930393019332
:102C9000029B059A93421ED1002E0FD0039B002B5E
:102CA00000D080E0E36AA06A5B6C9847049B002B2D
:102CB00000D07EE0E36AA06A5B6C9847069AE36AFC
:102CC000A06A002A00D17AE0C0331C6839003300C2
:102CD000019AA04715E0029B099A9B009D58002D80
:102CE00051D003231D424ED1FF226B681340A62B07
:102CF0000FD1A53B1E4206D0324A29002000FFF723
:102D0000F5F80BB0F0BD1E430395029B013302930F
:102D1000BEE7A72B07D1A53B1E4201D02A4AECE70C
:102D20001E430495F1E7A82B2DD1EA68002A10D0A4
:102D3000A53B1A420DD1FF2153680B40AA2B06D1A7
:102D400020009268A968FFF73FFF0137DDE7AC2B51
:102D500013D00F23A9680B40022B01D01B4ACCE7EC
:102D6000E36AA06ADB6B090998472000E968FFF76E
:102D7000C9FB019B01330193C7E70622290020000C
:102D8000FFF74AFFE1E7002E01D0114AB5E7019BAA
:102D9000002B01D00F4AB0E729002000FFF7B2FB5B
:102DA0000137019EB1E7039B20009968FFF7AAFB5A
:102DB0007CE7049B20009968FFF7A4FB7EE7BC3307
:102DC00083E7C046019B0410189B0410309B04103D
:102DD000519B04106C9B041070B50D0041790400E8
:102DE0001300012903D12A00FEF7A5FF6861E36AF9
:102DF000A06ADB6C984700236E691A00310020003E
:102E0000FEF7C0FEE36AF18ADB6BA06A9847E968C7
:102E1000002909D003230A001A40194204D14B6843
:102E2000DBB2A32B00D11100200002230022FFF708
:102E30001DFFF08A70BD10B5436A04005A8BFFF77E
:102E4000CBFF01002000FFF778FA10BD002310B57A
:102E50001A008968FFF70AFF10BD70B50D00040065
:102E6000C968FFF74FFBA9682000FFF74BFB70BD57
:102E70004B6870B5DBB204000D00342B11D18968AA
:102E8000FFF740FBED68AD68002D10D1E36A10211B
:102E90005B6BA06A9847E36A0422A03302211B6897
:102EA00019E0C36A10215B6B806A9847EBE7032641
:102EB000354225D16B68DBB29A2B0FD1E36A102122
:102EC0005B6BA06A9847A968002910D10422E36AC5
:102ED0000231A0331B68A06A984770BD9B2B0FD1AD
:102EE000A9682000FFF70EFBEB689968ECE720006B
:102EF000FFF708FBE36A0422A03331001B68EAE70E
:102F000029002000FFF7FEFAC5E710B50400896824
:102F1000FFF7F8FAE36A00211B6DA06A984710BD1D
:102F2000F0B58D6887B004000292002D09D1002A07
:102F300026D002222900C36AA0331B68A06A9847E2
:102F40001EE003272B003B4001933D4200D08FE061
:102F5000FF266B683340372B14D1029B002B06D021
:102F6000C36A0222A03301211B68806A98472000AF
:102F70002900FFF7C7FAE36AA06AA4331B689847E1
:102F800007B0F0BD9F2B73D1E86843683340A12B95
:102F90005ED1A221083005AA46F05EFAA968039026
:102FA000002926D0394224D14B681E40372E20D12B
:102FB000029B002B06D0E36A411CA03302221B684F
:102FC000A06A98472000A968FFF79CFAE36AA06A04
:102FD000A4331B6898470127019B039A93420DD1A4
:102FE000002FCDD11900E36A0322A0331B68013101
:102FF000A4E72000FFF786FA0027EDE70026019BF3
:10300000059A9B009958B14208D00323194205D173
:103010004E68FC331E40373E73425E412000FFF78E
:1030200071FA002F10D0002E05D1164A2900200079
:10303000FEF75CFFA4E7E36AA06AA4331B68984725
:10304000019B01330193C7E7002EF9D00E4AEDE74B
:10305000AB68002B06D03B4204D15B6804221E40C3
:10306000372E00D0052229002000FFF7D5FD87E785
:1030700029002000FFF746FAE36A0322A03301216A
:103080001B685BE78E9B0410AB9B041010B50122FC
:10309000FFF746FF10BD0000F7B50C00896805007A
:1030A000FFF730FAE668002E2FD07368DAB28E2A66
:1030B0002CD0260001230C3600930F22696AA368E6
:1030C000097800241A40072900D07AE0022A50D15A
:1030D0001A099A2A00D076E031684A68D2B2302ABA
:1030E00000D070E08A68A24200D06CE00A2128007B
:1030F000FFF712F901216A6AD36A528D002A09D1B9
:103100002800474A3168FEF7F1FEF7BD1B0A00931D
:103110000836D2E75878084210D059682800FFF7DF
:10312000FBF8009AEB6A022A0BD8BC331C68002318
:1031300002211A00A86AA04701241AE0013A0833C4
:10314000DCE7FF227068416811403229EDD1B46894
:1031500061680A40302AE8D181689B6CA86A090935
:103160002F3A9847A168002301222800FFF77EFD2F
:103170000324009BA342C8D9631C00980193621CDE
:10318000A300F158824245D2FF204A680240322A09
:1031900040D1F3185F687B680340302B3AD18968CF
:1031A000EB6A00229B6CA86A090998470023012258
:1031B0002800B968FFF75AFD019C0134D9E70024C3
:1031C000D7E7022AD5D1A42200241B09520093423A
:1031D000CFD1FF2133685A680A40302AC9D19C6890
:1031E000002CC6D0032322001A401C42E7D163689A
:1031F00014000B402F2BBCD1EB6A1100BC331F68AD
:10320000A86A1300B8473368220028009968FFF7BE
:1032100087FE91E72800FFF775F90194CCE7C046D7
:10322000CA9B0410436A10B51B780400072B05D015
:10323000022B03D0054AFEF759FE10BD2000FFF710
:103240002BFF2000FEF73CFDF7E7C046E29B041091
:1032500070B50D00C9680400FFF754F9AB6802218E
:103260001B09DBB2342B01D0403BD9B2E26AA06A21
:1032700098321368984770BDF8B54B680C008968A0
:1032800005001F0A0026FFF73DF90C340236B7424D
:1032900000DCF8BD61682800FFF734F92368A86AEC
:1032A0001909EB6A25399C331B68C9B29847083461
:1032B000ECE7F7B54B680D001F0089681B0A040096
:1032C00001930126FFF71EF90D3FFFB2019B9E42BD
:1032D00000DBF7BD2B00B200083399582000FFF740
:1032E00011F9E36A39009C331B68A06A98470136DC
:1032F000ECE7F7B54B680D001B0A896800930400E2
:10330000FFF700F9009B0027032B02D927697B1CDC
:10331000236101260C350195009A731C934221DB31
:10332000032A1EDD2569A06A6B1C2361E36A29005C
:10333000DB6E9847E36A3900DB6AA06A9847E36A64
:103340000121DB68A06A9847E36AA06A5B6E984730
:10335000E36AA06A1B6E9847E36A2900DB6AA06AE9
:103360009847F7BD019B20005968FFF7CBF8009BF9
:1033700002369E4207DAE36AA06A9B6D9847E36AC9
:10338000A06A9B6E98470F22019BA06A1968E36AA6
:103390000A409C331B680E2A14D10909CAB20621BF
:1033A000262A01D0353AD1B29847009B9E4205DAD1
:1033B000E36A3A0000215B6FA06A9847019B0833DB
:1033C0000193A9E7FF254A682A40852A01D13221C5
:1033D000EAE78A680721002AE6D03321E4E710B53E
:1033E00004008968FFF78EF8E36A032198331B68AD
:1033F000A06A984710BDF7B54A680E00D3B21E3BCD
:1034000059424B41040000250769DBB201937B1C44
:103410000361130A0093009B9D4205DBE36A3900B8
:10342000DB6AA06A9847F7BD3300AA0008339958B1
:103430002000FFF767F8009B01359D42EBDAE36A55
:103440003A005B6F0199A06A9847E4E70F2370B5D3
:103450000B400400022B11D04B68DBB2492B01D08A
:103460004F2B02D10123A37170BD4A2BFCD0502BEE
:10347000FAD0482B0DD10D69002D0CD1A379002B6A
:10348000F2D1E38A002BEFD020001D4AFEF72EFD7B
:10349000EAE7CD68F0E7A379002B28D0A38A8E68ED
:1034A00001339BB2A382012B0FD1E18AE36AA06AA8
:1034B000002919D0A03300221B689847E36A022232
:1034C000A03300211B68A06A984729002000FFF75D
:1034D00019F8E36AA06ADB6B31099847E36AA06ACE
:1034E000A4331B689847BFE75B6C9847E6E7E38A1D
:1034F000290001332000E382FFF704F8B4E7C04657
:10350000FB9B0410F7B504000E000569CF686B1C27
:103510000193AB1C036100222B00B968FFF744F94B
:10352000B1682000FEF7EEFFE36A691CA06ADB6E5B
:103530009847E36A2900A06ADB6A98470121E36A99
:10354000A06ADB6849429847F9682000FEF7DAFF75
:10355000E36A0199DB6AA06A9847F7BDF0B585B0C8
:1035600004001F0001910292002904D13900FEF7E6
:10357000C9FF05B0F0BD0669731C0361029B1D689D
:10358000002D2CD003232A001A4003921D4226D17D
:103590006B68DBB27B2B22D1A968FEF7B3FF310049
:1035A0002000039AFEF7AEFA2000039AE968FEF7BE
:1035B000F5FF029A019904323B0020000139FFF720
:1035C000CDFFE36A31000433DB6FA06A9847200027
:1035D0000321FEF78FFA2000FEF7A4FAC9E72900BD
:1035E0002000FEF78FFF200000223100FEF78AFA4C
:1035F000E36AA06A1B6E9847DBE737B50500080051
:103600000C0001AA7A21083045F026FFE36801008A
:10361000019A2800FFF7A2FF37BD0000F0B50400B3
:103620000F001E00056987B06B1C0593AB1C03617E
:10363000290004920122FEF765FA39002000FEF706
:1036400061FFE36A002294331B68A06A691C9847F3
:10365000E36A2900DB6AA06A9847E36AA06AD0336C
:103660001B689847236937000193013323610023C6
:103670000093009B049A934216DB2000FEF752FA57
:10368000E36AA06AD4331B689847E36A0599DB6A4A
:10369000A06A984720000C99FEF734FFE36A01996D
:1036A000DB6AA06A984752E03B6803932369029360
:1036B00001332361039B9E68009B01330093002E1E
:1036C00047D1049B009A934239D10025E36AA06A4E
:1036D0001B6E98472E00039B2000D968FEF712FF4F
:1036E000002D19D0E36A10215B6BA06A9847E36A4A
:1036F0003100DB6AA06A9847E36A10215B6BA06A1D
:10370000984729002000FEF718FE20002900FEF748
:10371000E8FE2000FEF706FAE36A012294331B68F4
:103720000199A06A9847E36A0299DB6AA06A984700
:10373000E36A0121DB68A06A9847043799E7200013
:103740001D4A3968FEF7D2FB2000FEF7EBF907B0FF
:10375000F0BD0325032335401E422BD1FF217368A2
:1037600032000B40762B02D1D568B6682D09E36A8A
:10377000A06A9B6D984731002000FEF7C3FEE36A04
:1037800008219C331B68A06A9847E36A00211B6FDD
:10379000029AA06A9847002D97D029002000FEF7D2
:1037A000CCFD26690222731C310020002361FEF744
:1037B000A9F990E70025DAE7299C0410F0B507691C
:1037C00085B003937B1C16000D00022239000361B3
:1037D0000400FEF797F9002E21D1E36A0321DB688C
:1037E000A06A984729002000FEF78CFE0321E36AB7
:1037F000A06ADB6849429847E36AA06A10215B6BC4
:103800009847E36A3900DB6AA06A984720000B9961
:10381000FEF778FE2000FEF785F905B0F0BD0A9BA3
:103820003200009329002000039BFFF7F7FEE3E737
:103830007FB5CE68050073680C00DBB2782B09D128
:103840000022B3680092019313002800A168FFF7DB
:10385000B5FF7FBD742B17D1300003AA7721083044
:1038600045F0FAFD33690200002B07D1F36800939D
:103870002800039BA168FFF7D1FEEAE79B6801934C
:10388000F3680093039BE0E7080003AA77210C305C
:1038900045F0E2FD00230200E9E70000F0B50D006D
:1038A0000F21AB6804008BB00B40022B00D001E16C
:1038B000EB68002B00D1FDE00322134200D0F9E0B9
:1038C000FF205A6802402C2A00D0F3E09A68114089
:1038D000022900D0EEE012097C2A00D0EAE0DA6882
:1038E00053681840302800D0E4E09368A23109AA58
:1038F00008A8089345F0B0FD431E022B00D9D9E07B
:10390000099B1E68012800D1C7E05F68022800D12A
:103910001CE19B680193DB0700D4CBE0019B5B10AB
:1039200000D1C7E0002E07D0B30705D17368DBB222
:10393000A63B022B00D8BDE0002F07D0BB0705D166
:103940007B68DBB2A63B022B00D8B3E0AB683A0041
:1039500004932B6905936B6925690393A3692583F8
:103960000793E38B06936B1C6383A38BE3832B1D6D
:10397000236101231A4002921F4203D13900200023
:10398000FEF7C0FD31002000FEF7BCFDE36AA06A2F
:10399000DB6EE91C9847E36AA91CDB6AA06A9847BA
:1039A000E36AA06A9B6D9847002220000499FEF705
:1039B000F5FD20000599FEF7A5FDE36AA06ADB6A24
:1039C000691C984720000199FEF79CFDE36A0E21CF
:1039D0009C331B68A06A9847E36AA06ADB6AE91C0B
:1039E0009847029AE36A002A5CD1DB6DA06A984787
:1039F000E36AA06A5B6E9847E36A019A9C330021F0
:103A00001B68A06A002A00DA012100269847E36AB1
:103A100001211B6FA06AAA1C9847079BA361069B04
:103A2000E383039BB3421ED0E36AA06A1B6E9847F0
:103A3000029BB34203D1E36AA06A1B6E9847200041
:103A40000399FEF75FFD2669A06A731C2361E36A90
:103A50003100DB6E98470121029BA06A5940E36A5E
:103A60000131DB689847E36A2900DB6AA06A98475E
:103A7000E36AA06A1B6E9847029B002B03D1E36A9E
:103A8000A06A1B6E9847039B002B04D0E36A3100A9
:103A9000DB6AA06A98470BB0F0BD0323370001939F
:103AA000060049E7A06A9B6D984739002000FEF7A1
:103AB00029FDA1E7A36926690293E38B771C019393
:103AC000B31C0393A38B2000E383224B6783334310
:103AD0002383F31C2361E968FEF714FDE36A0121E7
:103AE00088331B68A06A9847E36A3900DB6AA06ADA
:103AF0009847E36AA06A8C331B68B11C9847002280
:103B00002000A968FEF74AFD20002969FEF7FAFCAB
:103B1000E36AA06A9B689847002804D1E36A3900E9
:103B2000DB6EA06A9847E36AB11CA06ADB6A98471B
:103B3000E36AA06A90331B689847029B2000A36148
:103B4000019B6969E383FEF7DDFC9FE70323019393
:103B5000E8E6C0460080FFFFF0B5836985B00393B7
:103B60000669C38B771C0293B31C0361838B04002B
:103B700006834783C38388680D0045F0E5FB002872
:103B800021D12369019301332361A86845F05CFBCF
:103B9000002804D1E36A3900DB6EA06A9847E36A23
:103BA0000199DB6AA06A98472000E968FEF7AAFC41
:103BB000E36A3900DB6AA06A984701222000019B72
:103BC000A968FEF7F1FD039B2000A361029B296910
:103BD000E383FEF797FCE36A3100DB6AA06A98474B
:103BE00005B0F0BDF0B506690400731C0361886878
:103BF00087B00D0045F0A8FB021E26D127692000E2
:103C00007B1C2361A9683B00FEF7CEFD2000E9681C
:103C1000FEF778FCA86845F017FB002826D12B6931
:103C2000002B02D16B69002B0AD0E36AA06A9B6863
:103C30009847002804D1E36A3100DB6EA06A9847F8
:103C4000E36A3900DB6AA06A98472800712105AA57
:103C5000103045F001FC002303900193019B039A6F
:103C600093420AD120006969FEF74CFCE36A3100F7
:103C7000DB6AA06A984707B0F0BD019B059A9B00DC
:103C80009F58B86845F060FB021E21D123692000CF
:103C9000029301332361B968029BFEF785FD200082
:103CA000F968FEF72FFCB86845F0CEFA0028DDD1A0
:103CB000E36AA06A9B689847002804D1E36A310050
:103CC000DB6EA06A9847E36A0299DB6AA06A9847AC
:103CD000019B0133C1E7F0B587B004000191029266
:103CE0000393002904D10399FEF70CFC07B0F0BD43
:103CF0000669731C0493B31C0093331D0361029B7C
:103D0000F71C1D68002D00D1F0E003232A001A40A3
:103D100005921D4200D0E9E06B68DBB27B2B00D03E
:103D2000E4E0A968FEF7EEFBE36AA06A9B6D9847A2
:103D3000A8212000FDF7DCFF2000059AE968FEF7C6
:103D40002DFC022231002000FDF7DCFEE36AA06AB0
:103D50000321DB689847029A019904322000039BF3
:103D60000139FFF7B8FF0321E36AA06ADB68494223
:103D70009847E36A1021A06A5B6B9847E36AA06AE0
:103D80005B6E9847E36AA06A711CDB6E9847E36A32
:103D90003100A06ADB6A9847E36AA06A9B6D984786
:103DA000E36A0122A06A21219B699847E36AA06A1D
:103DB0009C3308211B689847E36A009A0021A06A97
:103DC0001B6F9847E36AA06A9B6D9847E36AA06AF5
:103DD0009B6E9847E36AA06A5B6E9847E36A00228D
:103DE000A921A06A9B6C9847E36AA06A9B6E9847DA
:103DF000E36AA06A9B6E9847E36AA06A9B6D984746
:103E0000E36A00220A21A06A5B6D9847E36AA06A10
:103E10005B6E9847E36AA06A10215B6B9847E36A80
:103E20000321C0331D680023A06A1A00A8472000A0
:103E3000FDF746FFE36A3A000021A06A1B6F98472E
:103E4000E36AA06A1B6E9847E36AA06A10215B6B65
:103E50009847E36A3900A06ADB6E9847E36AA06A74
:103E60000221DB689847E36A0099A06ADB6A9847F9
:103E7000E36AA06A9B6E9847E36AA06A9B6E9847C4
:103E8000E36A0499A06ADB6A9847E36A0022A06AA1
:103E9000A9219B6C9847E36A1021A06A5B6B984745
:103EA000E36AA06A9B6D9847E36AA06A9B6D984796
:103EB000E36A0321C0331D680023A06A1A00A847E3
:103EC0002000FDF7FDFEE36AA06A1B6E9847012102
:103ED000E36AA06ADB6849429847E36AA06A39004E
:103EE000DB6A98472000FDF71DFEFFE62900200051
:103EF000FEF708FBE36AA06A9B6D98472000A821A3
:103F0000FDF7F6FEE36AA06A1B6E984719E700000A
:103F1000F0B58D6804006B6887B0DBB2032B09D164
:103F20002900FEF71BFA0123AA69118B0B431383A7
:103F300007B0F0BD0121426A128B0A4204D1290068
:103F40005E4AFDF7D3FFF3E7162B00D0A8E0EB683D
:103F500006691B090193331D0361E968FEF7D2FA74
:103F6000E36AA06A0022AA219B6C9847E36AA06AD0
:103F7000C0331B681F0000231A001900B847200037
:103F80000199FEF7DAF9A369A06A0393E38B029320
:103F900023691F00013300933B0002332361009B20
:103FA00000996383A38B2783E383E36ADB6A9847E3
:103FB00001222000B118FDF7A5FD20000199FEF7B0
:103FC000ABF92000AC21FDF793FE2000A968002288
:103FD000FEF7E4FAE36A00229433A06AB11C1B687E
:103FE0009847E36A711CA06ADB6A9847E36AA06A93
:103FF000D0331B689847E36AA06A9B6D9847B2214B
:10400000E36A0122A06A9B6949009847E36AA06AB3
:104010009C3308211B689847E36AF21C0021A06AC0
:104020001B6F9847E36AA06A1B6E9847E36A0122F8
:1040300094333100A06A1B689847E36AA06AF11CB8
:10404000DB6A9847E36A0121DB68A06A9847200091
:10405000FDF768FDE36AA06AD4331B689847E36AFA
:10406000A06ADB6AB11C984720002969FEF74AFA6A
:10407000E36A0099A06ADB6E9847039B3100A36155
:10408000029BA06AE383E36ADB6A984720006969C0
:10409000FEF738FAE36A3900DB6AA06A984747E717
:1040A000280005AA7A21083045F0D6F9EB6801000E
:1040B000059A2000FFF70FFE3AE7C046479C041020
:1040C00070B58D680400002D06D12900C36AC8337D
:1040D0001B68A06A984770BDAB070FD16B68DBB255
:1040E0005E2B0BD1A968FEF70DFAE9682000FEF7F8
:1040F00009FAE36A0221C8331B68EAE729002000B5
:10410000FEF700FAE36A0121C8331B68E1E710B546
:1041100004008968FEF7F6F9E36AA06A1B6E984707
:1041200010BD00000F23F7B50B4005000C00022B5B
:1041300003D10909FEF7D5F9F7BD002965D003279A
:10414000394262D1FF224B6813402C2B3BD1896846
:10415000FEF7D8F9E668002E57D0310039403E42CC
:1041600053D1FF207268330010408E280AD10F000F
:10417000130A0193019B013BBB4211DC019B0133FC
:104180009B009B595A68D2B2312A12D128009968F3
:10419000FEF7B8F9EB6A02211B6DA86A9847CBE7D6
:1041A0003300BA00083328009958FEF7ABF90137FD
:1041B000E0E7322A29D19968EB6AA86A5B6D0909A0
:1041C000303A9847B8E72D2B1FD18C68002C1CD0B3
:1041D00063681A0A0123022A0AD1E268002A07D07A
:1041E0003A4205D15368FF221340AC2B0DD0012376
:1041F00062685E1C013B120A9A429DD9B300E158E5
:104200002800FFF78FFF3300F2E721002800024A61
:10421000FDF76CFE90E7C0466D9C0410F8B50500F4
:104220000C004B681E0AB700CF19BC4207D1EB6ADD
:104230003100A033A86A00221B689847F8BDA16826
:104240002800FEF75FF90434EFE7F7B5CD68040006
:104250000E00002D27D10379002B17D0436A1D785B
:10426000002D13D1CF21FEF757F8B1682000FEF7DB
:1042700049F9E36A2A00BC331E6801212B00A06AB9
:10428000B047E36AA06A1B6E9847ADE0B1688B0740
:1042900000D1A1E00F230B40022B00D0A4E02000AE
:1042A000FEF730F9EDE70322154200D09DE06B6880
:1042B000D9B25B2912D1ED68002D00D095E0406A9B
:1042C0000378072B00D08FE0B16808330B40022B36
:1042D00000D089E0090913F04EFB85E0562913D17F
:1042E0000122B168FEF75AF92000E968FEF70AF9E1
:1042F000A968E36A09093F399C331B68A06AC9B2FF
:1043000098470222B16863E0572900D06DE01B0A8C
:104310005F1E01339B005959FEF7F4F8002F03DDAF
:10432000E36AA06A9B6D9847B16800222000FEF7FF
:1043300035F90026BE4257DA0136BE4203DAE36A97
:10434000A06A9B6D9847291DB30000222000C95820
:10435000FEF724F9EEE76B68FF201A000193024094
:10436000062A45D1B768002F42D00F4240D17A6863
:1043700013000340062B3BD1019B120A1B0A9342F8
:1043800036D1022B34D1BB68002B05D00B4203D1B0
:104390005B68184022282BD0FB68002B05D09A07B9
:1043A00003D15B68DBB2222B22D02000A968FEF784
:1043B000A9F8E9682000FEF7A5F8E36AA06A5B6E39
:1043C00098470022B9682000FEF7E8F80022F96853
:1043D0002000FEF7E3F807E0002900D15FE74B6813
:1043E000DBB23A2B00D05AE7F7BD03210D42B2D021
:1043F00029002000FEF786F8002283E7F0B50400CC
:10440000080089B005910830422106AA45F024F839
:104410000027636A02905D8B0197029B9F420BD13C
:10442000059BD9684B68DBB2032B51D12A002000D1
:10443000FDF7ABFC050059E0069ABB009B586C21C8
:10444000180007AA0830039345F006F8079B04906C
:1044500019680A09732A0ED02000FEF753F80126C6
:10446000049B9E4229D3039BD96800290DD02000CC
:10447000FEF748F809E0049A022A08D02000294AE9
:10448000FDF734FD019B013301930137C5E75968FE
:104490000B09412B0BD0244A93420AD0234A934262
:1044A00009D0A23AFF3A9342E8D10425EAE7012570
:1044B000E8E70225E6E70325E4E7079AB300995801
:1044C000E36A00225B6DA06A090998470136C7E7D5
:1044D000442B17D18E682A0031002000FDF755FCCF
:1044E00001230500B269118B0B4313830026029B45
:1044F000019A9B1AB3420AD829002000FDF71DFF3C
:1045000009B0F0BD2A002000FEF766FC92E7E36ADE
:104510000121BC331F680023A06A1A00B847013686
:10452000E5E7C046859C04106E02000035030000DC
:10453000F8B505000E0000244B681F0ABC4210DAD3
:104540003300A200083399582800FDF7DBFFAB6861
:10455000002B07D028000234A400A1590C30FDF72D
:10456000BAFCF8BD0134E9E710B50400FFF7E0FF3D
:10457000E36A22219C331B68A06A984710BD70B57E
:104580008D680400002D07D101222900C36AA033E1
:104590001B68A06A984718E00322154221D16B6876
:1045A000FF201900014092291BD11B0A022B0DD1BB
:1045B000E96800290AD0114208D14B680340AC2BAE
:1045C00004D129002000FEF727FB70BD2900200040
:1045D000FFF7AEFFE36A6968A03301221B68090A8E
:1045E000D7E729002000FDF78DFF0122E36A1100C3
:1045F000A0331B68CDE70000F8B5E223174A5B0043
:10460000D75804000D00002F26D106690122731C23
:10461000036189683300FEF7C7F8E36A1F210122AE
:104620009B69A06A9847E96800290AD02000FDF735
:1046300069FFE36A3A00BC331D6801213B00A06AB0
:10464000A847E36A0121C8331B68A06A9847E36A58
:104650003100DB6AA06A9847F8BDC0461C8F022073
:10466000436A10B51B780400072B03D00A4AFDF7F4
:104670003DFC10BD896800290AD1C36A10315B6B0B
:10468000806A9847E36AA06AC4331B689847F0E7DA
:10469000FDF738FFF6E7C046A39C0410896810B503
:1046A000002906D1C36A0A00A0331B68806A9847B4
:1046B00010BD4B681B0A022B0CD1CB68002B09D014
:1046C0009A0707D15B68DBB2AC2B03D10622FEF759
:1046D000A3FAEDE7FFF7A2FDEAE70000F0B54379A2
:1046E00004000D0085B0012B0BD14B68DBB20093A9
:1046F000102B08D0436A1B78002B04D1204AFDF709
:10470000F5FB05B0F0BD28006D2103AA083044F088
:10471000A3FE00270190019BBB42F2D0039ABB008D
:104720009958606A0022090913F025F9009A0600D9
:104730000378102A0FD10E3A9343124A17D102235D
:1047400033704168606A13F037F9002801D0022302
:1047500003700137DFE7002B0ED101330370010036
:10476000606A13F032F93378074A012BF1D129003E
:104770002000FDF7BBFBECE7052BEAD0034AF6E788
:10478000BD9C0410E29C0410019D04101F9D0410A8
:10479000F0B5140097B00D0034220021049009A850
:1047A00042F016FE08AB1C7101235B42BB4A0E931C
:1047B000CA330895FF33D35C049A0021126808A815
:1047C000FDF7B9FA070000F039FEB54B109C1393C2
:1047D0000023029012900193002C02D00A9D002D1C
:1047E00020D0109C002C02D00A9B002B39D0002531
:1047F0000199029800F027FE109C0A9B002C00D122
:104800002DE1002B00D1E0E0119B0BA8D968FDF74A
:1048100062FB119B0B9A0193DB8A08990A980AF0B4
:1048200045FA1FE1638B0122210008A8042B08D15F
:10483000FDF770FB0C9B019A9A4200D20193A46889
:10484000CAE7FEF78FF8638D9D42F3D2E26AEB0070
:10485000D118D35C012B02D1200013F0B6F801353A
:10486000F1E70421228B0A4215D0618D01394A1CDF
:1048700011D00225E06ACA0082185078284225D05B
:10488000002B08D0596815008C46186842CD42C3E9
:1048900063461060536000256584638D03939D42D9
:1048A0001ADB00230120039A9A4244D16568002D47
:1048B0000AD000226B8D0693130006998A4249DBC9
:1048C00000220125934275D1A4688BE7002BCDD13E
:1048D0000128CBD11300C9E7E36AEE009E192378C3
:1048E000012B04D173680A2B10D10135D5E732783A
:1048F000012B0BD9012A09D102233370638B032BBF
:1049000013D01022238B1343238302E03378022B2E
:10491000F4D03378032B03D0012273781342E4D010
:10492000638C5A1C62847380DFE7706808F044F877
:104930000128EEDCE5E7E16ADA008D188A5C042ADA
:1049400006D16A78024203D1628C6A8001326284A5
:104950000133A8E7E96AD0000E18095C059604390E
:10496000012917D8002112E0E66AC800B446844441
:10497000305C05280AD10598406807906046079E7C
:104980004068864202D1604643800133013103987A
:104990008842E9D1013290E7E06AE66AD100401826
:1049A000715C052902D14178294202D04188C91899
:1049B0004180013203999142EED1A28B9BB29A18A9
:1049C000A283628C9B1863847EE7638B042B1BD1CC
:1049D000149B0393002B03D1019801F08FF91490DD
:1049E000002312932F4B0322210008A81593FDF7F3
:1049F00091FA0A9B0393002B04D10422210008A8FA
:104A0000FDF788FAA468F8E6023B012B22D8002DB6
:104A100005D1019A0CA90AA803F03CFE0500224B1F
:104A2000129513930222210008A8FDF79BFF0A9B11
:104A30000393002BE6D10322210008A8FDF792FF83
:104A40000A9B0393002BDDD10422210008A8FDF767
:104A500089FFD7E7029B1293114B1393E2E7002BD8
:104A600000D0D1E6029800F0F6FC002D02D028001C
:104A700003F02EFE1498002801D001F054F9049898
:104A800044F0CAFC3C693800BF6812F05BFF002F9D
:104A9000F9D10A98002809D007F0E0FF1C8F022006
:104AA0002C9E0410C4A0041078A304103A0039000E
:104AB000200000F03BFD17B0F0BDC0468079431EDA
:104AC0009841C0B270474379012B09D08368C91857
:104AD000C36881609A8C914200DD998400238371C0
:104AE0007047042110B54942FFF7EDFF10BD10B526
:104AF0000421FFF7E8FF10BD032110B54942FFF77D
:104B0000E2FF10BD0300006A5A790918032A02D88F
:104B10001800196270471A6B1018FAE710B50C00EC
:104B20000121FFF7EFFF047010BD0300806A5A797E
:104B30000918032A02D81800996270475A6A801827
:104B40001A6B1018F8E710B50C000121FFF7EDFF04
:104B5000047010BD70B504001500FFF7B4FF01210B
:104B60002000FFF7E2FF057070BD10B55322012150
:104B7000FFF7F0FF10BD10B554220121FFF7EAFF47
:104B800010BD10B557220121FFF7E4FF10BD10B58D
:104B900058220221FFF7DEFF10BD012110B5592276
:104BA0004942FFF7D7FF10BD10B55A220021FFF789
:104BB000D1FF10BD10B55B220021FFF7CBFF10BD68
:104BC000012110B55D224942FFF7C4FF10BD5E22EE
:104BD00010B5002901D003215F22FFF7BBFF10BDF4
:104BE0000A0010B5303A0021D2B2FFF7B3FF10BD72
:104BF000022110B562224942FFF7ACFF10BD01212E
:104C000010B5632249420400FFF7A4FF0123A371FA
:104C100010BD0A0010B56432D2B24942FFF79AFFC4
:104C200010BD0A0010B504006732D2B24942FFF746
:104C300091FF0123E268118B0B43138310BD70B504
:104C4000060015001C00FFF73EFF30000321FFF7B0
:104C50006CFF4470240A0570847070BD0B0010B5A1
:104C6000012A07D0022A0BD1012167324942FFF7FE
:104C700071FF10BD11001B32D2B2FFF7E0FFF8E761
:104C800001214942F7E710B50B0010220121FFF77F
:104C9000D6FF10BD10B511320B00D2B20121FFF7C3
:104CA000CEFF10BD10B501240B005100611A541E37
:104CB000A2411432FFF7C3FF10BD0B00012110B554
:104CC0001632D2B24942FFF7BAFF10BD10B5193201
:104CD0000B00D2B20021FFF7B2FF10BDF8B50500FE
:104CE0001F001600FFF7EFFE6B790024032B06D997
:104CF000AB6A074CBF00E41AEB69FB58E4182800C4
:104D00000321FFF712FF4470241206708470F8BD6F
:104D1000FD7F000010B50B0042220021FFF7DEFFEF
:104D200010BDF8B505001F001600FFF7CCFE6B792B
:104D30000024032B06D9AB6A033CE41AEB69BF00DD
:104D4000FB58E41828000321FFF7EFFE4470240A03
:104D500006708470F8BD10B50B00514251414732C6
:104D60004900D2B2FFF7DDFF10BD10B50B004B229A
:104D70000121FFF7D6FF10BD10B50B004A2200211C
:104D8000FFF7CFFF10BD0000E223F7B5224A5B001A
:104D9000D35805000191022B29D84769B94226D979
:104DA000836A0269CF1B9C1A062F01D90F2C1FD9C9
:104DB00000941F2C01D91F230093009B0026A342BF
:104DC00003D33E00032F00D9032601212800FFF75B
:104DD00099FE009A730113430370009BBF1BE41AF2
:104DE00023003B43E0D1AB6A2B61019B6B61F7BDB4
:104DF00080233E001B019F4200D3084E0221280061
:104E0000FFF780FE7022330913402343F03A134327
:104E1000037046700094E0E71C8F0220FF0700003B
:104E200070B504000D000021FFF74DFE6379012BE2
:104E300005D0032B03D8A26AE369AD00EA5070BD28
:104E400070B50D000400111E05D12B0013222000A7
:104E5000FFF7F5FE70BD022A04D1FFF786FE2000A1
:104E6000FFF7A2FE02212B0018224942EFE710B5FE
:104E70000400002905D1552201392000FFF76AFE00
:104E800010BD022904D1FFF770FE2000FFF792FE4B
:104E9000032156224942F0E7130010B543220029AE
:104EA00000D1442201214942FFF718FF10BD130031
:104EB00010B54522002900D1462201214942FFF7C1
:104EC0000DFF10BDF8B5164F05000C0016000F4081
:104ED000002A17D10B040ED55921FFF734FE5921B2
:104EE0002800FFF730FE59212800FFF72CFE59213A
:104EF0002800FFF728FE3B00422200212800FFF790
:104F0000EDFEF8BD3B0040220021FFF7E7FE7F23C6
:104F1000210A994331432800C9B2FFF714FEF0E794
:104F2000FF7FFFFF70B50400322913D0002533291D
:104F300001D101352C392939CAB201212000494259
:104F4000FFF708FE002D04D0D32200212000FFF738
:104F500001FE70BD01250621EDE770B5437904001F
:104F6000012B26D000250021FFF7D8FD626B236AB4
:104F7000A5639B1A6363E068438D9D421AD3A38F98
:104F8000E3876379032B24D1A36A206AE36260621A
:104F9000C01804F00AFBE3682063988BDB8BC01811
:104FA000A38FC018A31CDB8FC018800004F0FDFA8B
:104FB000606470BDC26AEB00D118D35C042B06D1CB
:104FC00020008978FFF7AAFDA36B0133A3630135A5
:104FD000D1E7042BEDD1038B626C216B006900F0EB
:104FE0007EFAE6E70B001033F7B506000D003F2B05
:104FF00006D80A00803A0121D2B2FFF7ABFDF7BD17
:1050000001212222FFF7A6FD6B465C1D21007F20B7
:105010002F0022000740EBB2013CED1127706F1CFE
:10502000012FF5D840273B40013514D1002B02D188
:10503000013C2070941E3000091BFFF776FD80268E
:105040000200230001AD7642AB420AD16A461279D2
:105050001C1B0255D3E7002BEDD00023013C23702D
:10506000E8E719780133314311700132ECE773B589
:105070001D000600FFF76EFD6B465C1D21007F22C0
:105080002B00013C13402370ED09F9D13000091BBE
:10509000FFF74BFD80260200230001AD7642AB42B4
:1050A00004D16A4612791B1BC25473BD19780133AF
:1050B000314311700132F2E7F8B51D00C368861C58
:1050C0009C8BDB8BE318C48F1C19F38F5F1CF78755
:1050D0001B194479042C02D1466C9C00A551FFF7A2
:1050E000C6FFF8BD10B51C000B69224304D1012195
:1050F0003232FFF7E1FF10BD012133224942F8E7C8
:1051000070B5040018000B690499D5B208430AD1A0
:105110000121891A20222000FFF7CEFF290020005C
:10512000FFF711FD70BDD1432122F4E7110010B546
:10513000002B07D10F2A05D8503A0121D2B2FFF730
:1051400009FD10BD2433DAB20B000121FFF78FFFF8
:10515000F7E7110010B5002B08D10F2A06D801215E
:10516000403AD2B24942FFF7F5FC10BD2633DAB21D
:105170000B0001214942FFF77AFFF6E7110010B555
:105180002833DAB20B000021FFF771FF10BD10B514
:1051900001240B002100022A00D0E11A2A32D2B2E7
:1051A000FFF765FF10BD130010B503290BD00429CC
:1051B0000CD000210222CB189B001343C9432F229D
:1051C000FFF755FF10BD00210A00F4E70121FBE7BE
:1051D00010B50B0030220139FFF749FF10BD10B5A3
:1051E00013020B4389183122FFF741FF10BD70B540
:1051F000049DD2B26C002D02E4182B43059D002DB6
:1052000002D00132D2B20234091BFFF730FF70BD69
:1052100007B5019300920B0034220021FFF7E7FF4E
:1052200007BD13B50124019300920B0036226142A1
:10523000FFF7DDFF13BD10B5C268938BD28B9A18B0
:10524000838F5C1C9B1842798487042A02D1446CAA
:105250009A00115123220121FFF709FF10BD10B55B
:10526000FFF7E9FF10BD000010B50E2903D1054975
:10527000FFF7E1FF10BD4131CAB20121FFF76AFC1F
:10528000F8E7C0463CD4041070B504000D001021AE
:10529000FFF7EAFF29002000FFF7C2FD5C22200093
:1052A0000221FFF757FC042120004942FFF70BFCC5
:1052B00070BDF0B587B00023059141710121150043
:1052C00083608371C2600361416183620362528CB7
:1052D000AB8C0400D218002A00D10A000F23298BBE
:1052E0007820194002910421EB8BEF8C03932B8CD7
:1052F000AE8B0493BB000B400139013A3140194396
:10530000D30003401943130901937F08B608019B9A
:10531000029A3B431343039A33431343049A1343C0
:1053200042D12000FFF7FAFB059B022B17D97E26FE
:105330000127A36B626B180051005B089209314092
:105340003840A36301436263134301D080231943B0
:105350002000FFF7E3FBA36B626B1343E9D1236AE1
:10536000022163632000EE8AFFF7CCFB0670360A49
:10537000467002212000AE8AFFF7C4FB00230670AE
:10538000A21C360A4670A387D387059A042A53D1F4
:105390000227A98BEA8B8A180292029A9A424BD072
:1053A0006A8D0021019242E080235B421943200074
:1053B000C9B2FFF7B3FB029B990140231940019B3F
:1053C00018013023184001430120049B1840039B1F
:1053D0000143D800082318400143043BB0001840A3
:1053E000014302207B0003401943019B7F08C34017
:1053F0000193029B76085B080293039B5B0803936F
:10540000049B5B08049382E70126E86ACA008218BD
:10541000507830420AD05088984207D15268606C68
:10542000D20099003A430A500133B6E70131019A9C
:105430008A42E9DC0522F2E707B0F0BD10B548204A
:1054400004F0B3F810BD10B504008161880004F0C9
:105450008DF8E06110BD10B50400C06904F0BAF821
:10546000200004F0B7F810BD10B50400012212F0BE
:1054700082FA2378012B04D90378012B01D102335E
:10548000037010BD70B505000E00100019001C005F
:1054900012F061FA0378012B05D100227368210014
:1054A0002800984770BD022B02D101227368F6E7ED
:1054B00036684288032B04D1002321002800B0471E
:1054C000F0E70123F9E710B5102004F06EF8072289
:1054D000037893431A0001231343037010BD10B5E2
:1054E0007F241C400223E40023430488A40AA4026E
:1054F000234303804160826010BD10B5FE24049BED
:10550000A400DB002340072421401943039B9B0296
:105510000B430168DB02490D4905DB0A0B430360BD
:10552000029B42608360059BC36010BD70B50400A0
:10553000237808005B07110065685B0F042B0BD80C
:10554000022B0BD9A3682A000AF01CF823881B073A
:1055500014D50B4B036011E0052B08D0A3682A007B
:1055600009F0E2FF23881B0708D5064BF2E7236802
:105570002900D802E268400D0AF00CF870BDC04660
:10558000C0CA041084CA0410802370B50C005B00EC
:10559000194015000A001C4201D06A682968FFF70B
:1055A000C5FF0223E2091A409A40E1B2AA1808F0A6
:1055B000F7FA70BD70B5038CC46A032B03D10023C6
:1055C000856A9D4205D18B00E250FAF7A7FF0120C2
:1055D00070BD9E00A659964201D00133F1E700202C
:1055E000F6E710B5FAF7F0FF10BD8BB270B5050005
:1055F0000C0003844262032B05D1836A0021C06A38
:105600009A0041F0E5FE043C61426141280001310D
:10561000FAF761FF28000021FAF7AAFF70BD000029
:105620000F2370B513400400022B09D00A00104864
:10563000104909F001FB0025636A1860280070BD5D
:105640000025836A1209AB420AD1238C0025042B62
:10565000F4D10949064809F0EFFA636A1860EDE7EA
:10566000E06AA90009589142E8D00135EBE7C0464D
:1056700010C50410049F0410199F0410F7B51F00F3
:105680000F2305000E001C4C1340022B03D1100900
:1056900010F099FC04002378184A019300235178F4
:1056A000019881421DD161788C4691788C4518D142
:1056B000A1788C46D178614513D100290ED10F4ACB
:1056C0009B00D05CB84208D93B0032000C490D4821
:1056D00009F0B2FA6B6A18600020FEBDE17800297B
:1056E000EDD001330432152BD9D1320006490548DB
:1056F00009F0A2FAEEE7C046148905102CA10410A7
:10570000309F041010C50410499F0410F0B5040028
:105710000D0085B0002A47D00320024244D1FF216A
:1057200053680B402F2B3FD19268203B16001E4040
:10573000022E08D129002000FFF7A0FF0127874093
:10574000380005B0F0BD002A2ED0160006400196A4
:10575000024229D1506808409F2825D1D668706838
:105760000140A12920D1290092682000FFF786FF7F
:10577000012787403000A221083003AA43F06CFEC5
:105780000123019E00900193009B9E42D8DA039969
:10579000B2000F23525820002900FFF76FFF019B32
:1057A000013683401F43EFE72A000449044809F00B
:1057B00043FA636A00271860C2E7C046619F04107D
:1057C00010C50410F0B585B004000D00100003A949
:1057D0001E0043F001FE002809D12A000B490C48A5
:1057E00009F02AFA636A1860002005B0F0BD03983A
:1057F00007F000FA0300B343F7D003002A0005497D
:105800000096034809F018FAECE7C0467C9F0410A4
:1058100010C50410949F0410F0B50E0085B004006C
:1058200003A930001F00009210F0D2FB009B05007E
:10583000002B0ED18F4B9E4205D1BF2109022000C3
:10584000FAF78AFEC1E08C4B9E4200D087E08B497C
:10585000F5E7009B012B00D098E09A23FF339E428E
:1058600012D101003A682000FFF7DAFE01002000A3
:10587000FAF716FF002800D0A7E081498148646A42
:1058800009F050F92060A0E0A023FF339E4209D127
:1058900001003A682000FFF7C3FE01002000FAF77C
:1058A0003EFFE7E7A623FF339E420BD1973B010063
:1058B0003A682000FF3BFFF7E1FE8E21C000C901DE
:1058C0000143BCE70378622B30D1039B032B07D045
:1058D000052B2BD1C3785F2B28D103796E2B25D1D3
:1058E000012600226978684B76425878884205D1B3
:1058F000A87884469878844500D11E780132033315
:105900000E2AF2D1731C2AD03A6829002000FFF732
:1059100087FE039B0200052B02D12B79772B1ED02B
:10592000002331002000FAF7D8FEA3E7C023FF339D
:105930009E4201D1554982E7E0235B009E4201D19E
:1059400053497CE7534B9E4212D1290020003A680C
:10595000FFF7DCFEFF231B02B421184214D0009B8A
:105960002A004D49474809F067F9636A18602CE03E
:10597000782EF4D1290020003A68FFF7C7FEFF23F4
:105980001B021842EBD1BC21090299E7009B022BB4
:1059900000D003E10F227B6813409A229200022B71
:1059A0004CD1964213D101003A680D332000FFF725
:1059B00065FE290006007A680F232000FFF75EFECF
:1059C000310002002000FAF733FE05B0F0BD8E234F
:1059D000FF339E4215D18026F60129003A6807233D
:1059E0002000FFF74BFE29007A6800900723200073
:1059F000FFF744FE31000300009A2000FAF711FE81
:105A0000E3E70026254B0133019303222800019987
:105A100043F07AFD00280AD1EB78002B07D11F4B09
:105A2000B6009E5D80233601DB011E43D5E7019B56
:105A30000136043301930F2EE7D190E796422FD120
:105A40008026072329003A682000FFF717FEFF236E
:105A5000290000907A682000FFF7B4FE009BB60191
:105A6000190206433143EAE6A026EAE7C026E8E742
:105A7000E026E6E7710200003703000030BF0000B7
:105A80001FA0041010C5041098A0041072B60000E6
:105A900062B6000096020000EA9F0410D8A004102D
:105AA000DA235B009E42DFD08623FF339E42DDD0A7
:105AB0006D4B9E42DCD06D4B9E424AD06C4B9E4259
:105AC00049D06C4B9E4248D0972E48D06A4B9E429C
:105AD00047D06A4B9E4200D041E70523684A9B00AD
